:1000000010C02AC029C028C027C026C025C024C0CF
:1000100023C022C021C020C01FC01EC01DC01CC0E4
:100020001BC011241FBECFE5D2E0DEBFCDBF10E064
:10003000A0E6B0E0EEEFF0E002C005900D92AE3623
:10004000B107D9F710E0AEE6B0E001C01D92A037CD
:10005000B107E1F725D051C0D3CF0FB680959AE014
:10006000F89470E27A95F1F708F0C09A08F4C09815
:1000700086959A95B1F70FBE08950FB680E8F8946B
:10008000B19BFECFB199FECF90E19A95F1F791E245
:100090009A95F1F78695B1998068C8F70FBE0895D3
:1000A0000FD0D69A80E690E015D08FE996E8A1E0CF
:1000B00081509040A040E1F700C00000CE9AF2CFFE
:1000C0008DE290E090936F0080936E00B89AB9989B
:1000D000C1980895EF92FF92CF93DF93E82EE70146
:1000E0007E01F92EE70101C0B8DF89918823E1F78D
:0E00F000DF91CF91FF90EF900895F894FFCF2D
:0E00FE0048656C6C6F20576F726C64210A00AD
:00000001FF
